:1000000000000110952D00007D5C00006D2D0000AA
:100010007D5C00007D5C00007D5C00000000000055
:10002000000000000000000000000000D16300009C
:100030007D5C000000000000016400007D5C0000A9
:100040007D5C00007D5C00007D5C00007D5C00004C
:100050007D5C00007D5C00007D5C00007D5C00003C
:100060007D5C00007D5C00007D5C00007D5C00002C
:100070007D5C00007D5C00007D5C00007D5C00001C
:100080007D5C00007D5C00007D5C00007D5C00000C
:100090007D5C00007D5C00007D5C00007D5C0000FC
:1000A0007D5C00007D5C00007D5C00007D5C0000EC
:1000B0007D5C00007D5C00007D5C00007D5C0000DC
:1000C0007D5C00007D5C00007D5C00007D5C0000CC
:1000D0007D5C00007D5C00007D5C00007D5C0000BC
:1000E0007D5C00005C96000000000010F80000003D
:1000F0005C9600000000002000000000F8000010E6
:10010000E00A00000000002000000000FFFFFFFFE9
:10011000FFFFFFFFFFFFFFFFFFFFFFFFFFFFFFFFEF
:10012000FFFFFFFFFFFFFFFFFFFFFFFFFFFFFFFFDF
:10013000FFFFFFFFFFFFFFFFFFFFFFFFFFFFFFFFCF
:10014000FFFFFFFFFFFFFFFFFFFFFFFFFFFFFFFFBF
:10015000FFFFFFFFFFFFFFFFFFFFFFFFFFFFFFFFAF
:10016000FFFFFFFFFFFFFFFFFFFFFFFFFFFFFFFF9F
:10017000FFFFFFFFFFFFFFFFFFFFFFFFFFFFFFFF8F
:10018000FFFFFFFFFFFFFFFFFFFFFFFFFFFFFFFF7F
:10019000FFFFFFFFFFFFFFFFFFFFFFFFFFFFFFFF6F
:1001A000FFFFFFFFFFFFFFFFFFFFFFFFFFFFFFFF5F
:1001B000FFFFFFFFFFFFFFFFFFFFFFFFFFFFFFFF4F
:1001C000FFFFFFFFFFFFFFFFFFFFFFFFFFFFFFFF3F
:1001D000FFFFFFFFFFFFFFFFFFFFFFFFFFFFFFFF2F
:1001E000FFFFFFFFFFFFFFFFFFFFFFFFFFFFFFFF1F
:1001F000FFFFFFFFFFFFFFFFFFFFFFFFFFFFFFFF0F
:10020000FFFFFFFFFFFFFFFFFFFFFFFFFFFFFFFFFE
:10021000FFFFFFFFFFFFFFFFFFFFFFFFFFFFFFFFEE
:10022000FFFFFFFFFFFFFFFFFFFFFFFFFFFFFFFFDE
:10023000FFFFFFFFFFFFFFFFFFFFFFFFFFFFFFFFCE
:10024000FFFFFFFFFFFFFFFFFFFFFFFFFFFFFFFFBE
:10025000FFFFFFFFFFFFFFFFFFFFFFFFFFFFFFFFAE
:10026000FFFFFFFFFFFFFFFFFFFFFFFFFFFFFFFF9E
:10027000FFFFFFFFFFFFFFFFFFFFFFFFFFFFFFFF8E
:10028000FFFFFFFFFFFFFFFFFFFFFFFFFFFFFFFF7E
:10029000FFFFFFFFFFFFFFFFFFFFFFFFFFFFFFFF6E
:1002A000FFFFFFFFFFFFFFFFFFFFFFFFFFFFFFFF5E
:1002B000FFFFFFFFFFFFFFFFFFFFFFFFFFFFFFFF4E
:1002C000FFFFFFFFFFFFFFFFFFFFFFFFFFFFFFFF3E
:1002D000FFFFFFFFFFFFFFFFFFFFFFFFFFFFFFFF2E
:1002E000FFFFFFFFFFFFFFFFFFFFFFFFFFFFFFFF1E
:1002F000FFFFFFFFFFFFFFFFFFFFFFFFFFFFFFFF0E
:10030000F8B500BFF8BC08BC9E467047510300001A
:10031000FD290000BD2B0000712E0000BF6300000E
:10032000F8B500BFF8BC08BC9E46704710B5054C38
:10033000237833B9044B13B10448AFF30080012391
:10034000237010BDF800001000000000A49500000C
:1003500008B5034B1BB103490348AFF3008008BD48
:1003600000000000FC000010A495000080B483B0E1
:1003700000AF786039603B6818460C37BD465DF8C1
:10038000047B704780B400AF4FF0FF326FF0004342
:1003900010461946BD465DF8047B704780B483B0B3
:1003A00000AF78607B6818460C37BD465DF8047B6B
:1003B000704780B483B000AF78607B6818460C3714
:1003C000BD465DF8047B704780B483B000AF7860B1
:1003D0007B6800229A607B6818460C37BD465DF842
:1003E000047B704780B582B000AF78607B689B6803
:1003F000002B05D07B689B68786879680322984752
:100400007B6818460837BD4680BD80B483B000AF16
:1004100078607B689B68002B0CBF01230023DBB254
:1004200018460C37BD465DF8047B704780B400AFBA
:10043000034B1B681846BD465DF8047B704700BF40
:100440001401001080B483B000AF78600B46FB70DD
:100450001346BB70074A7B681A607B68FA781A718A
:100460007B68BA785A717B6818460C37BD465DF8D0
:10047000047B70479883000080B483B000AF78603D
:100480007B681B7918460C37BD465DF8047B7047C6
:1004900080B483B000AF78607B685B7918460C3716
:1004A000BD465DF8047B704780B582B000AF7860D0
:1004B0000B46FB701346BB707B68BA78F978184618
:1004C000FFF7C0FF034A7B681A607B68184608374D
:1004D000BD4680BD7C83000080B483B000AF7860EF
:1004E00000BF0C37BD465DF8047B704780B582B015
:1004F00000AF78600B46FB70084BF9781A785B7890
:100500001B021A43002362F30F031A46786800F0B7
:1005100059F800BF0837BD4680BD00BF347B0000DE
:1005200080B582B000AF78600B46FB70084BF9785D
:100530001A785B781B021A43002362F30F031A46F2
:10054000786800F03FF800BF0837BD4680BD00BFA7
:10055000387B000080B582B000AF78600B46FB703E
:10056000FB7883F00103DBB21946084B1A785B78FD
:100570001B021A43002362F30F031A46786800F047
:1005800021F800BF0837BD4680BD00BF3C7B00009E
:1005900080B582B000AF78600B46FB70F978084BED
:1005A0001A785B781B021A43002362F30F031A4682
:1005B000786800F007F800BF0837BD4680BD00BF6F
:1005C000407B0000F0B587B000AFF8600B46BA8002
:1005D000FB72FB683B61194B1C683B691846FFF7CF
:1005E0004BFF03461D463B691846FFF751FF034684
:1005F0001A466B0113449B0023441B68F97A7A68FE
:10060000184601F045FA0546FB687B610B4B1C68F8
:100610007B691846FFF730FF03461E467B69184684
:10062000FFF736FF03461A46730113449B00234429
:100630001D6000BF1C37BD46F0BD00BF1801001093
:1006400080B582B000AF78607B681B6804331B689C
:1006500001217868984700BF0837BD4680BD80B546
:1006600082B000AF78607B681B6804331B68002190
:100670007868984700BF0837BD4680BD80B582B016
:1006800000AF78607B681B681B680021786898471A
:1006900000BF0837BD4680BD80B582B000AF78602E
:1006A0007B681B681B6801217868984700BF083782
:1006B000BD4680BD80B483B000AF78607B68D3E96D
:1006C0000023104619460C37BD465DF8047B704781
:1006D000B0B586B000AF786039607B68D3E900239D
:1006E000C7E9022307F108031846FFF7E3FF0446B2
:1006F0000D463B68D3E90023C7E9042307F1100343
:100700001846FFF7D7FF02460B46944275EB0303EA
:10071000B4BF01230023DBB218461837BD46B0BD75
:1007200080B483B000AF786039603B68D3E90023C0
:100730007968C1E900237B6818460C37BD465DF82F
:10074000047B704780B483B000AF786039603B6849
:10075000D3E900237968C1E900237B6818460C3788
:10076000BD465DF8047B704780B582B000AF78600D
:100770007B68184600F005F800BF78680837BD466A
:1007800080BD80B584B000AF78604FF000024FF0BC
:100790000003C7E9022307F1080319467868FFF749
:1007A000BFFF78681037BD4680BDB0B582B000AFDE
:1007B000786039603868FFF77DFF7B68D3E90023F4
:1007C000841841EB03057B68C3E900457B68184644
:1007D0000837BD46B0BDFFFF80B586B000AF78607A
:1007E00007F11003184601F066F907F1100207F14E
:1007F00008031146184601F06BF907F10803194682
:100800000648FFF7D2FF7968044BD3E90023C1E91A
:10081000002378681837BD4680BD00BF2001001056
:1008200080B582B000AF78607B681846FFF7DAFDCC
:100830007B6818460837BD4680BDFFFF80B592B083
:1008400000AFC7E90401FA6007F12003184601F080
:1008500083F907F1200207F110031146184601F051
:100860008FF90346002B04D0D7E90423C7E90623F8
:1008700023E007F128031846FFF776FF07F1280267
:1008800007F110031146184601F07AF90346002BD0
:1008900001D001232DE007F130031849184601F07B
:1008A00096F93B4607F1100207F13001184601F0B6
:1008B000A7F9D7E90023C7E9062301237B6407F1E1
:1008C00038030E49184601F082F907F1180207F1C2
:1008D00038031146184601F0C3F90346002B07D030
:1008E000F86801F0CEF90346002BE8D000237B64C2
:1008F0007B6C18464837BD4680BD00BF28010010FC
:1009000080B483B000AF7860002318460C37BD4632
:100910005DF8047B704780B582B000AF78607B687B
:100920001846FFF75FFD7B6818460837BD4680BD57
:1009300090B589B000AFC7E9000107F10C0311467B
:10094000184601F0B5F907F10C031A46D7E9000182
:10095000FFF774FF044607F10C031846FFF7DBFFAF
:10096000234618462437BD4690BD80B582B000AFFF
:10097000C7E90001D7E90001FFF7DAFF00BF083738
:10098000BD4680BD80B483B000AF7860044A7B6808
:100990001A607B6818460C37BD465DF8047B7047CB
:1009A0005883000090B583B000AF78600B46FB70B1
:1009B0001346BB707B68BA78F9781846FFF742FD9A
:1009C000074A7B681A607C68BB78184600F0ACF870
:1009D0000346E3807B6818460C37BD4690BD00BFD8
:1009E0003C83000080B483B000AF786000BF0C3758
:1009F000BD465DF8047B704790B585B000AF786068
:100A00000B46FB70786800F0AAF8F8600B4B1B6887
:100A1000FA6853F82200094B1C687B68F978DA8879
:100A2000002362F30F031A4601F032F80246FB6816
:100A300044F8232000BF1437BD4690BD3801001094
:100A400080B483B000AF0346FB71FB7918460C37C6
:100A5000BD465DF8047B7047B0B584B000AF7860E8
:100A60000B46FB70786800F07AF8F8600F4B1B6853
:100A7000FA6853F82250FB781846FFF7E1FF034667
:100A80001A460B4B995C094B1C687B68DA8800237B
:100A900062F30F031A46284600F0FAFF0246FB688D
:100AA00044F8232000BF1037BD46B0BD3C01001004
:100AB000447B000080B582B000AF78600B46FB70CD
:100AC0005723044A0449054803F0B0FB00BF083728
:100AD000BD4680BD507B0000487B0000907B00003D
:100AE000B0B584B000AF78600B46FB700D4B1B684F
:100AF0007A68127953F822007B685B793B73012393
:100B00007B73084B1C687B681B791D46FB78FA6871
:100B1000194601F0F7F8034644F8253000BF1037B6
:100B2000BD46B0BD4001001080B485B000AF0346A3
:100B3000FB71FB795B00DBB203F01E03DBB23B739E
:100B400002237B7300233A7B62F307037A7B62F311
:100B50000F2318461437BD465DF8047B704780B4F8
:100B600085B000AF78607B685B790F2B01D90123DA
:100B700000E00023FB607B681B795B001A46FB6882
:100B8000134418461437BD465DF8047B7047FFFFD9
:100B900080B483B000AF7860124B1B6803F0010390
:100BA000002B14D1104A114B1A60114A0F4B5A6096
:100BB000104A0E4B9A60104A0C4BDA600F4A0B4BEE
:100BC0001A610F4A094B5A61064B01221A607B6871
:100BD0009B00064A134418460C37BD465DF8047B5B
:100BE000704700BF5C05001000800920440500101C
:100BF0002080092040800920608009208080092011
:100C0000A080092080B483B000AF78601A4B1B68C5
:100C100003F00103002B22D1184B194A04321A6049
:100C2000174A08325A60164A0C329A60144A103237
:100C3000DA60134A14321A611433114A24321A60EA
:100C40000F4A28325A600E4A2C329A600C4A3032CF
:100C5000DA600B4A34321A61074B01221A607A6853
:100C600013469B0013449B00044A134418460C3758
:100C7000BD465DF8047B70478805001060050010D4
:100C80008080024080B400AF024B1846BD465DF83C
:100C9000047B70478080024080B584B000AFFFF7CE
:100CA000F1FF03461B689B08FB60F868FFF7AAFF8B
:100CB000B860BB681B681A68BB685B681B68134335
:100CC0007B607B6893FAA3F3B3FA83F33B60FB6822
:100CD0005A013B6813441B010A4A1344184601F0A9
:100CE00031F8BB689B681A6801213B6801FA03F37D
:100CF0001946BB689B680A431A6000BF1037BD469F
:100D000080BD00BF4401001080B584B000AFF86022
:100D10007B600B46FB721346BB72FB681846FFF7FD
:100D200031FE234AFB681A60FB680433BA7AF97A09
:100D30001846FFF737FEFB680C33BA7AF97A184683
:100D4000FFF7B2FBFB6800225A61FB6800229A6140
:100D5000FB68BA7A1A77FB6800225A777B68002B07
:100D600005D1FB6803F10C02FB685A6102E0FB68E5
:100D70007A685A61FB7A022B03D1FB6801225A7709
:100D800009E0FB7A002B03D1FB6800225A7702E0CE
:100D9000FB6802225A77FB7A1846FFF7F9FE0346F2
:100DA0001A68FB689A61FB6818461037BD4680BD1B
:100DB0001883000090B585B000AF78600B46FB70DB
:100DC0000023FB737B685B691B6804331B687A68CC
:100DD0005269002110469847FB78002B0DD17B68A3
:100DE0009B691A687B681B7F19467B689C69104663
:100DF00000F0BEFF034623600CE07B689B691A6825
:100E00007B681B7F19467B689C69104600F0C3FF16
:100E10000346236000BF1437BD4690BD80B483B045
:100E200000AF78600B46FB70FB78012B09D17B6823
:100E30001B7F1A46012303FA02F27B689B699A61C1
:100E400008E07B681B7F1A46012303FA02F27B68E5
:100E50009B69DA6100BF0C37BD465DF8047B7047C3
:100E600080B483B000AF78607B689B695A697B6807
:100E70001B7F194601238B4019467B689B694A40BA
:100E80005A6100BF0C37BD465DF8047B704780B5E2
:100E900082B000AF78607B689B695A697B681B7F72
:100EA0001946104600F089FF034618460837BD462C
:100EB00080BD80B483B000AF78607B685B69184602
:100EC0000C37BD465DF8047B704780B582B000AF3B
:100ED00078607B681846FFF785FA7B681846083704
:100EE000BD4680BD80B582B000AF78607B680433BA
:100EF0001846FFF7EAFF7B6818460837BD4680BDF5
:100F0000B0B58CB000AFF860B9601346FB71F868FB
:100F100000F0A6F8034683F00103DBB2002B55D1A5
:100F2000FFF784FA0446236804331D6826237B6197
:100F300007F1140304332749184600F055FF4FF01A
:100F4000FF33BB6207F1140319462046A84707F197
:100F500014031846FFF7C6FFFB685B7F1946FB6862
:100F60001B7F1A464B0113441B011B4A1344B968EB
:100F7000184600F063FFF86800F096F8F862FB7915
:100F8000022B02D0FB79002B0CD1FB6ADB681A68BC
:100F9000FB681B7F1946FB6ADC68104600F0FBFE0D
:100FA00003462360FB79022B02D0FB79012B0ED183
:100FB000FB6A1B691A68FB681B7F1946FB6A1C6980
:100FC000104600F0E8FE0346236000E000BF303723
:100FD000BD46B0BD990C00004401001090B585B02D
:100FE00000AF7860786800F03BF8034683F00103B7
:100FF000DBB2002B2DD17B685B7F19467B681B7FA2
:101000001A464B0113441B01144A1344002118468D
:1010100000F02FFF786800F047F8F860FB68DB68A5
:101020001A687B681B7F1946FB68DC68104600F075
:101030009FFE03462360FB681B691A687B681B7F61
:101040001946FB681C69104600F092FE03462360B7
:1010500000E000BF1437BD4690BD00BF4401001042
:1010600080B584B000AF78607B685B7F022B14BFD3
:1010700001230023FB73FB7B83F00103DBB2002B16
:1010800006D04FF4A573054A0549064803F0CEF88B
:10109000FB7B18461037BD4680BD00BFE07B0000DB
:1010A0002C820000107C000080B582B000AF786018
:1010B0007B685B7F1846FFF7A5FD03461846083797
:1010C000BD4680BD80B582B000AF78607B681846B1
:1010D000FFF7EFFE03461A680C321268012118462A
:1010E00090477B6820331846FFF7E3FE03461A68F3
:1010F0000C3212680121184690477B68403318462D
:10110000FFF7D7FE03461A680C3212680121184611
:1011100090477B6860331846FFF7CBFE03461A689A
:101120000C3212680121184690477B6880331846BC
:10113000FFF7BFFE03461A680C32126801211846F9
:1011400090477B68A0331846FFF7B3FE03461A6842
:101150000C3212680121184690477B68C03318464C
:10116000FFF7A7FE03461A680C32126801211846E1
:1011700090477B68E0331846FFF79BFE03461A68EA
:101180000C3212680121184690477B6803F5807382
:101190001846FFF781FA7B6803F590731846FFF74E
:1011A0007BFA7B6803F5A0731846FFF775FA7B6836
:1011B00003F5C0731846FFF76FFA7B6803F5D07329
:1011C0001846FFF769FA7B6803F5B0731846FFF716
:1011D00055FA7B681846FFF75FFA7B68203318469C
:1011E000FFF75AFA7B6840331846FFF755FA7B68D9
:1011F00060331846FFF750FA7B6880331846FFF7D4
:101200004BFA7B68A0331846FFF746FA7B68C03379
:101210001846FFF741FA7B68E0331846FFF73CFABF
:101220007B6803F580731846FFF70AFA7B6803F5BD
:1012300090731846FFF713FA7B6803F5C0731846DE
:10124000FFF7FEF97B6803F5D0731846FFF707FA3E
:101250007B6803F5A0731846FFF7F2F900BF083763
:10126000BD4680BD80B584B000AF78600B46FB7092
:101270001346BB707B6803F590731846FFF7E0F9DF
:101280007B6803F580731846FFF7DAF97B6803F58E
:10129000D0731846FFF7D4F97B6803F5C07318467E
:1012A000FFF7CEF97B6803F5A0731846FFF7D7F96F
:1012B0000023FB60FB68072B21DCFB685B017A687D
:1012C00013441846FFF7E8F9FA78FB6842FA03F38B
:1012D00003F00103002B07D0FB685B017A6813441D
:1012E0001846FFF7ADF906E0FB685B017A68134426
:1012F0001846FFF7B4F9FB680133FB60DAE77B6857
:1013000003F590731846FFF7AAF90023BB60BB688A
:10131000072B1ADCBA78BB6842FA03F303F0010327
:10132000002B07D0BB685B017A6813441846FFF7AF
:1013300087F906E0BB685B017A6813441846FFF73B
:101340008EF9BB680133BB60E1E77B6803F5C073CE
:101350001846FFF784F97B6803F5C0731846FFF75A
:101360006FF900BF1037BD4680BD80B588B000AFB3
:1013700078600B46FB700023FB777B6803F5907366
:101380001846FFF75DF97B6803F580731846FFF791
:1013900057F97B6803F5D0731846FFF751F97B685E
:1013A00003F5C0731846FFF74BF97B6803F5A0738C
:1013B0001846FFF754F90023BB61BB69072B1ADC01
:1013C000FA78BB6942FA03F303F00103002B07D05C
:1013D000BB695B017A6813441846FFF731F906E0F0
:1013E000BB695B017A6813441846FFF738F9BB699B
:1013F0000133BB61E1E77B6803F590731846FFF7A3
:101400002EF900237B617B69072B0ADC7B695B017A
:101410007A6813441846FFF731F97B6901337B6121
:10142000F1E77B6803F580731846FFF718F97B68CE
:1014300003F5D0731846FFF712F90023FB7700235A
:101440003B613B69072B15DC3B695B017A68134400
:101450001846FFF71CFD03461A463B6902FA03F3E0
:101460005AB297F91F3013435BB2FB773B690133E4
:101470003B61E6E77B6803F580731846FFF7E0F809
:101480007B6803F5D0731846FFF7DAF80023FB609A
:10149000FB68072B0ADCFB685B017A68134418467B
:1014A000FFF7FAF8FB680133FB60F1E7FB7F1846B2
:1014B0002037BD4680BD80B582B000AF78607868C7
:1014C000002302220221FFF71FFC7B6803F12000AA
:1014D000002305220221FFF717FC7B6803F140007F
:1014E000002307220221FFF70FFC7B6803F1600055
:1014F000002309220221FFF707FC7B6803F180002B
:1015000000230F220021FFF7FFFB7B6803F1A000FF
:10151000002312220021FFF7F7FB7B6803F1C000D4
:10152000002301220021FFF7EFFB7B6803F1E000BD
:1015300000230A220021FFF7E7FB7B6803F5807098
:10154000002311220021FFF7DFFB7B6803F5907079
:10155000002316220021FFF7D7FB7B6803F5A0705C
:10156000002300220021FFF7CFFB7B6803F5B0705A
:1015700000230B220021FFF7C7FB7B6803F5C07037
:10158000002310220021FFF7BFFB7B6803F5D0701A
:10159000002308220221FFF7B7FB7B6818460837B3
:1015A000BD4680BD80B590B000AF2748FFF78AFDEB
:1015B000384600230B220021FFF7A6FB234B1B78A4
:1015C000234A127819462048FFF74CFE214B1B781E
:1015D000214A127819461C48FFF744FE3B4618463C
:1015E000FFF767FC03461A680832126802211846A2
:1015F000904707F120031949184600F0F5FB07F161
:1016000020013B4600221846FFF77AFC07F1200331
:101610001846FFF75AFC2023114A1249124802F0DB
:1016200005FE07F13803184600F03DFC07F13802CB
:1016300007F130031146184600F042FCD7E90C01CF
:10164000FFF793F9E7E700BF8C05001004000010D6
:101650000500001006000010070000106D160000C5
:10166000A87C000038820000B47C000080B582B005
:1016700000AF29239D4A9E499E4802F0D7FD0123D1
:101680007B607B68042B00F3D9817B68013B032BD3
:1016900000F2D08101A252F823F000BFAD16000085
:1016A0006D1700002D18000069190000924B0122EF
:1016B0001A70924B1B78904A127819469048FFF79F
:1016C000D1FD904B1B7819468D48FFF74EFE03461F
:1016D000F12B0CBF01230023DBB2002B06D03423F7
:1016E000824A8949894802F0A1FD9CE1854B1B781B
:1016F00019468348FFF739FE0346F22B0CBF01233E
:101700000023DBB2002B06D03823784A8049814879
:1017100002F08CFD87E17B4B1B7819467848FFF778
:1017200024FE0346F42B0CBF01230023DBB2002B65
:1017300006D03C236D4A7849784802F077FD72E183
:10174000704B1B7819466E48FFF70FFE0346F82BC7
:101750000CBF01230023DBB2002B00F06481402387
:10176000624A6F496F4802F061FD5CE1624B022200
:101770001A70624B1B78604A127819466048FFF76E
:1017800071FD604B1B7819465D48FFF7EEFD03467F
:10179000F12B0CBF01230023DBB2002B06D0492321
:1017A000524A6149614802F041FD3EE1554B1B78C8
:1017B00019465348FFF7D9FD0346F22B0CBF01230E
:1017C0000023DBB2002B06D04D23484A5849594824
:1017D00002F02CFD29E14B4B1B7819464848FFF7D6
:1017E000C4FD0346F42B0CBF01230023DBB2002B06
:1017F00006D051233D4A5049504802F017FD14E1EC
:10180000404B1B7819463E48FFF7AFFD0346F82BC7
:101810000CBF01230023DBB2002B00F0068155230F
:10182000324A4749474802F001FDFEE0324B0422AC
:101830001A70324B1B78304A127819463048FFF73D
:1018400011FD304B1B7819462D48FFF78EFD0346DE
:10185000F12B0CBF01230023DBB2002B06D05E234B
:10186000224A3949394802F0E1FCE0E0254B1B7877
:1018700019462348FFF779FD0346F22B0CBF0123DD
:101880000023DBB2002B06D06223184A30493148CE
:1018900002F0CCFCCBE01B4B1B7819461848FFF735
:1018A00064FD0346F42B0CBF01230023DBB2002BA5
:1018B00006D066230D4A2849284802F0B7FCB6E056
:1018C000104B1B7819460E48FFF74FFD0346F82BC7
:1018D0000CBF01230023DBB2002B00F0A8806A2399
:1018E000024A1F491F4802F0A1FCA0E0047D00004D
:1018F00044820000207D0000070000100600001058
:101900008C05001008000010508200006C7D000063
:101910005C820000B87D000068820000047E000048
:1019200074820000507E0000808200009C7E0000D7
:101930008C820000E87E000098820000347F000066
:10194000A4820000807F0000B0820000CC7F0000F5
:10195000BC82000018800000C88200006480000083
:10196000D4820000B08000003C4B08221A703C4B2F
:101970001B783A4A127819463A48FFF773FC3A4BFB
:101980001B7819463748FFF7F0FC0346F12B0CBFD4
:1019900001230023DBB2002B06D07323334A3449E2
:1019A000344802F043FC44E02F4B1B7819462D4885
:1019B000FFF7DBFC0346F22B0CBF01230023DBB255
:1019C000002B06D07723294A2B492C4802F02EFC05
:1019D0002FE0254B1B7819462248FFF7C6FC03462B
:1019E000F42B0CBF01230023DBB2002B06D07B239A
:1019F0001E4A2349234802F019FC1AE01A4B1B78AF
:101A000019461848FFF7B1FC0346F82B0CBF012319
:101A10000023DBB2002B0CD07F23144A1A491B4849
:101A200002F004FC05E000BF04E000BF02E000BFDC
:101A300000E000BF7B6801337B6022E6074B0F228A
:101A40001A70074B1B78054A127819460548FFF7AC
:101A500009FC00BF0837BD4680BD00BF070000106D
:101A6000060000108C05001008000010047D000026
:101A7000E0820000FC800000EC8200004881000051
:101A8000F88200009481000004830000E0810000DF
:101A900080B584B000AFF8600B46BA80FB723B792A
:101AA0001A467B79F97AF86800F024FA034618465A
:101AB0001037BD4680BD80B582B000AF78607B68CE
:101AC000184600F044FA00BF78680837BD4680BD6C
:101AD00080B584B000AF7860396007F108033968D9
:101AE000184600F048FA07F108031846FEF7E2FD31
:101AF00002460B467968C1E900237B681846103717
:101B0000BD4680BD90B583B000AF786039607B681A
:101B10001846FEF759FC3B68184600F03BFA0346AE
:101B2000002B0FD07C683B46184600F043FA034672
:101B30001946204600F049FA7B68054ADA607B685E
:101B4000044A9A607B6818460C37BD4690BD00BFBA
:101B5000EF1F00001320000080B584B000AF786054
:101B600000F082FA02460B46C7E9022307F1080398
:101B700019467868FEF7D4FD78681037BD4680BDF9
:101B8000B0B586B000AF786039607B68D3E90023D8
:101B9000C7E9022307F108031846FEF78BFD044648
:101BA0000D463B68D3E90023C7E9042307F110037E
:101BB0001846FEF77FFD02460B469D4206BF944243
:101BC00001230023DBB218461837BD46B0BD80B5EF
:101BD00082B000AF786039603B681846FEF715FCAC
:101BE0000346002B01D004F07FFC3B68DB683968BA
:101BF0007A681046984700BF78680837BD4680BDB0
:101C00002DE9B0438AB000AFF860B9607A60BB6874
:101C1000D3E90023C7E9062307F118031846FEF7A6
:101C200049FD04460D467B68D3E90023C7E9082334
:101C300007F120031846FEF73DFD02460B4614EB64
:101C4000020845EB0309C7E9048907F110031946A7
:101C5000F868FEF765FDF8682837BD46BDE8B08333
:101C600080B582B000AF7860396079683868FEF777
:101C70002FFD034683F00103DBB218460837BD464B
:101C800080BD80B582B000AF78607B681846FEF7F3
:101C9000BCFB0346002B01D004F026FC7B68DB680C
:101CA0007A6810469847034618460837BD4680BDF7
:101CB00090B583B000AF786039707B681846FEF746
:101CC00083FB3B46184600F0D8F90346002B0FD0A3
:101CD0007C683B46184600F0DBF90346194620466F
:101CE00000F0E1F97B68054ADA607B68044A9A6093
:101CF0007B6818460C37BD4690BD00BFCB20000066
:101D0000EB20000080B584B000AFF8600B46BA80CD
:101D1000FB723B791A467B79F97AF86800F010FA81
:101D2000034618461037BD4680BD80B582B000AF6F
:101D300078607B681846FEF747FB7B6818460837D3
:101D4000BD4680BD80B582B000AF78607B68184624
:101D5000FEF75BFB0346002B01D004F0C5FB7B685C
:101D6000DB687A681046984700BF0837BD4680BDDB
:101D700080B483B000AF7860396001223B6802FA1A
:101D800003F3DB431A467B68134018460C37BD4605
:101D90005DF8047B704780B483B000AF7860396031
:101DA00001223B6802FA03F31A467B681343184684
:101DB0000C37BD465DF8047B704780B483B000AF3C
:101DC0007860396001223B6802FA03F31A467B68A7
:101DD0001340002B14BF01230023DBB218460C373D
:101DE000BD465DF8047B704790B583B000AF786066
:101DF00039607B681846FEF7E7FA3B68184600F042
:101E0000CCF90346002B0FD07C683B46184600F007
:101E1000D4F903461946204600F0DAF97B68054AF2
:101E2000DA607B68044A9A607B6818460C37BD46C6
:101E300090BD00BFF52100001122000080B586B0E2
:101E400000AF7860396007F108033968184600F080
:101E50000AFA07F108037968184600F026FA07F134
:101E600008031846FFF731F87B6818461837BD4657
:101E700080BD80B582B000AF786039607B689B68B8
:101E8000002B0BD07B689B687868796803229847A1
:101E90007B6800229A607B680022DA607B681846C3
:101EA0000837BD4680BD80B582B000AF78607B68E2
:101EB000184600F01BFA00BF78680837BD4680BDA1
:101EC00080B584B000AF7860396007F108033968E5
:101ED000184600F01FFA07F108031846FEF7EAFB60
:101EE00002460B467968C1E900237B681846103723
:101EF000BD4680BD80B489B000AFF8607A603B60B9
:101F00000B46FB724FF0FF33FB612023BB613B6844
:101F1000C3F120034FF0FF3222FA03F37B617A69A9
:101F20007B6802FA03F3DB43FA681340FB60FA7A3A
:101F30007B691A407B6802FA03F3FA681343FB607B
:101F4000FB6818462437BD465DF8047B704780B5B2
:101F500084B000AF78604FF001024FF00003C7E992
:101F6000022307F108031946786800F0E2F978685F
:101F70001037BD4680BD80B582B000AF7860396053
:101F80007B683968184600F0F4F900BF78680837B4
:101F9000BD4680BD80B483B000AF78607B68002B05
:101FA00014BF01230023DBB218460C37BD465DF891
:101FB000047B704780B483B000AF78607B681846BC
:101FC0000C37BD465DF8047B704790B585B000AF17
:101FD000786039603868FFF7EDFF034622461946FE
:101FE000786800F000FA00BF1437BD4690BD80B598
:101FF00082B000AF78603960386800F00DFA0346AF
:102000001B687A681046984700BF78680837BD4655
:1020100080BDB0B586B000AFF860B9601346FB7103
:10202000FB79032B16D0032B19DC012B02D0022BDA
:102030000AD014E0B86800F0EFF90446F86800F040
:10204000FBF903461C600AE02A46B968F86800F00C
:10205000FFF904E02146F86800F013FA00BF0023FE
:1020600018461837BD46B0BD80B500AFFEF78AF9F7
:1020700002460B461046194680BD80B483B000AFBF
:102080007860012318460C37BD465DF8047B704725
:1020900080B483B000AF78607B6818460C37BD46CB
:1020A0005DF8047B704790B585B000AF786039600B
:1020B0003868FFF7EDFF034622461946786800F0BE
:1020C00048FA00BF1437BD4690BD80B582B000AF5E
:1020D0007860786800F052FA03461846FEF710FC64
:1020E000034618460837BD4680BDB0B586B000AF80
:1020F000F860B9601346FB71FB79032B16D0032BF4
:1021000019DC012B02D0022B0AD014E0B86800F0D1
:1021100035FA0446F86800F041FA03461C600AE00C
:102120002A46B968F86800F045FA04E02146F868E4
:1021300000F055FA00BF002318461837BD46B0BD61
:1021400080B489B000AFF8607A603B600B46FB72E8
:102150004FF0FF33FB612023BB613B68C3F12003D9
:102160004FF0FF3222FA03F37B617A697B6802FA4F
:1021700003F3DB43FA681340FB60FA7A7B691A4089
:102180007B6802FA03F3FA681343FB60FB681846A6
:102190002437BD465DF8047B704780B483B000AF40
:1021A00078607B68002B14BF01230023DBB2184644
:1021B0000C37BD465DF8047B704780B483B000AF38
:1021C00078607B6818460C37BD465DF8047B704725
:1021D00090B585B000AF786039603868FFF7EDFFE3
:1021E000034622461946786800F005FA00BF143706
:1021F000BD4690BD80B582B000AF7860786800F0D1
:1022000013FA03461B68984700BF0837BD4680BDD8
:10221000B0B586B000AFF860B9601346FB71FB79CA
:10222000032B16D0032B19DC012B02D0022B0AD072
:1022300014E0B86800F0F8F90446F86800F004FA11
:1022400003461C600AE02A46B968F86800F008FAFC
:1022500004E02146F86800F01CFA00BF002318468D
:102260001837BD46B0BD80B582B000AF7860396028
:102270007B681846FEF7A8F8386800F016FA03469F
:10228000002B0DD03B689B6878683968022298471C
:102290003B68DA687B68DA603B689A687B689A60BA
:1022A0007B6818460837BD4680BD80B582B000AF58
:1022B000786039607B683A681146184600F0F8F893
:1022C0007B6803F108023B6808331946104600F0AA
:1022D00021F97B6803F10C023B680C331946104668
:1022E00000F0FEF900BF0837BD4680BD80B584B060
:1022F00000AF78604FF4FA724FF00003C7E9022391
:1023000007F1080319467868FEF71CFA7868103759
:10231000BD4680BD80B582B000AF786039607B6813
:102320003968184600F009FA00BF78680837BD46DA
:1023300080BD80B483B000AF786039603B68D3E97A
:1023400000237968C1E900237B6818460C37BD4635
:102350005DF8047B704780B483B000AF78607B6821
:10236000D3E90023104619460C37BD465DF8047BBF
:102370007047B0B584B000AF786039603868FFF757
:10238000EAFF02460B464FF000044FF000055D01E6
:1023900045EAD265540122462B46121A63EB01032B
:1023A0004FF000044FF000059D0045EA927594003F
:1023B00022462B46121841EB03034FF000004FF06A
:1023C0000001D90041EA5271D00002460B46C7E92C
:1023D000022307F1080319467868FEF7A1F9786827
:1023E0001037BD46B0BD90B585B000AFF860B9609C
:1023F0003A71B868FFF7DEFD03461C68F868FDF720
:10240000CDFF034619460420FDF7B0FF03461C60CC
:1024100000BF1437BD4690BD80B584B000AF786072
:10242000786800F0CDF9F860F86800F0D5F9034657
:1024300018461037BD4680BD80B582B000AF7860C9
:102440007868FDF7ABFF034618460837BD4680BDE8
:1024500090B585B000AFF860B9603A71B86800F027
:10246000AFF903461C68F868FDF798FF0346194664
:102470000420FDF77BFF03461C6000BF1437BD46F8
:1024800090BD80B582B000AF78603970786800F098
:10249000AEF900BF0837BD4680BD80B483B000AF41
:1024A00078607B6818460C37BD465DF8047B704742
:1024B00080B584B000AF786039607868FFF7EDFFD1
:1024C000024607F1080392E8030083E80300386836
:1024D000FFF7E3FF02467B6892E8030083E803000E
:1024E00007F108031846FFF7D8FF02463B6892E859
:1024F000030083E8030000BF1037BD4680BD80B4F1
:1025000083B000AF78607B6818460C37BD465DF835
:10251000047B704780B584B000AF7860396078681C
:10252000FFF7EDFF03461B68FB603868FFF7E7FF26
:1025300003461A687B681A6007F10C031846FFF718
:10254000DEFF03461A683B681A6000BF1037BD46BD
:1025500080BD80B584B000AFF860B9603A71B868EA
:10256000FFF796FDF868FDF719FF034619460120AD
:10257000FDF7FCFE00BF1037BD4680BD80B584B0BE
:1025800000AF7860786800F03EF9F860F86800F015
:1025900046F9034618461037BD4680BD80B582B067
:1025A00000AF78607868FDF7F9FE034618460837F3
:1025B000BD4680BD80B584B000AFF860B9603A71A7
:1025C000B86800F020F9F868FDF7E8FE0346194600
:1025D0000120FDF7CBFE00BF1037BD4680BD80B5A2
:1025E00082B000AF78603970786800F023F900BFDE
:1025F0000837BD4680BD90B585B000AFF860B960C2
:102600003A71B868FFF7D9FD03461C68F868FDF712
:10261000C5FE034619460420FDF7A8FE03461C60CC
:1026200000BF1437BD4690BD80B584B000AF786060
:10263000786800F00BF9F860F86800F013F90346C9
:1026400018461037BD4680BD80B582B000AF7860B7
:102650007868FDF7A3FE034618460837BD4680BDDF
:1026600090B585B000AFF860B9603A71B86800F015
:10267000EDF803461C68F868FDF790FE034619461E
:102680000420FDF773FE03461C6000BF1437BD46EF
:1026900090BD80B582B000AF78603970786800F086
:1026A000ECF800BF0837BD4680BD80B582B000AFF2
:1026B00078607B681846FDF7A8FE034683F00103A7
:1026C000DBB218460837BD4680BD80B483B000AF8A
:1026D00078607B6818460C37BD465DF8047B704710
:1026E00080B584B000AF786039607868FFF7EDFF9F
:1026F00003461B68FB603868FFF7E7FF03461A686C
:102700007B681A6007F10C031846FFF7DEFF0346EB
:102710001A683B681A6000BF1037BD4680BD80B4A0
:1027200083B000AF78607B68D3E900231046194678
:102730000C37BD465DF8047B70472DE9B04384B08B
:1027400000AF786039603868FFF7E9FF04460D464E
:1027500022462B464FF000004FF00001590141EA9C
:10276000D261500102460B46121B63EB05034FF08A
:1027700000004FF00001590241EAD25150020246D6
:102780000B46121945EB03034FF000004FF0000118
:10279000990141EA92619001801A61EB030110EB0B
:1027A000040841EB0509C7E9028907F10803194646
:1027B0007868FDF7B5FF78681037BD46BDE8B0838F
:1027C00080B582B000AF78607868FDF7F2FD03460F
:1027D00018460837BD4680BD80B483B000AF78602E
:1027E0007B6818460C37BD465DF8047B704780B5A2
:1027F00082B000AF78607868FDF7D0FD03461846D8
:102800000837BD4680BD80B582B000AF786078687B
:10281000FDF7CFFD034618460837BD4680BD80B49E
:1028200083B000AF78607B6818460C37BD465DF812
:10283000047B704780B582B000AF78607868FDF7A0
:10284000ADFD034618460837BD4680BD80B582B051
:1028500000AF78607868FDF7ACFD0346184608378E
:10286000BD4680BD80B483B000AF78607B681846F9
:102870000C37BD465DF8047B704780B582B000AF71
:1028800078607868FDF78AFD034618460837BD462C
:1028900080BDFFFF90B583B000AF7860054C064B5C
:1028A0009C4204D0103C2046FEF70FFBF7E70C37A4
:1028B000BD4690BD44050010440100102DE9F041D3
:1028C00082B000AF786039607B68012B6DD13B68C6
:1028D0004FF6FF72934268D1364B1B6803F0010339
:1028E000002B05D1334B01221A60334A334B1A6057
:1028F000334B1B6803F00103002B0BD1304B01223B
:102900001A6030493048FFF7FDF8304A30492E4808
:1029100003F0E2FD2F4B1B6803F00103002B06D1EF
:102920002C4B01221A60244B1A462B4B1A602B4B5E
:102930001B6803F00103002B06D1284B01221A600B
:102940001D4B4033264A1360264B1B6803F00103DE
:10295000002B06D1234B01221A60174B6833224A01
:102960001360224B1B6803F00103002B1AD11F4B8D
:1029700001221A601E4B01249846002C0DDB4646AE
:102980001F25002D05DB3046FFF7CFF91036013D3E
:10299000F7E708F50078013CEFE70C4A15490020FD
:1029A00003F09AFD1448FEF786FD00BF0837BD46C8
:1029B000BDE8F0814C07001000C002401801001073
:1029C00050070010D9070000280100100000001077
:1029D00021080000540700103801001058070010AB
:1029E0003C0100105C07001040010010600700105F
:1029F00044010010952800008C05001080B500AF40
:102A00004FF6FF710120FFF759FF80BD80B586B0FA
:102A100002AF786039603A6807F10C030093002335
:102A20000021786804F060FAFB6818461037BD464C
:102A300080BDFFFF80B584B000AF786039603B682F
:102A4000FB600F217868FFF7E1FF034623F00103E5
:102A5000BB60FB681968BB68043B1A46064801F076
:102A6000E5FBFB681B685A1CFB681A6000231846CC
:102A70001037BD4680BD00BFAC83000080B584B078
:102A800000AF786039603B68FB600F217868FFF722
:102A9000BDFF034623F00103BB60BB68043B19463E
:102AA000064801F0C3FBFB681B685A1CFB681A60F0
:102AB000002318461037BD4680BD00BFBC83000010
:102AC00080B584B000AF03463960FB710023FB6022
:102AD00007F10C031946174804F0E4FD3B68002B8E
:102AE00005D0FB683A681946134801F09FFBFB7953
:102AF000002B1BD0114801F099FB114801F096FB07
:102B0000104801F093FB07F10C0319460E4804F03E
:102B1000C9FD3B68002B03D039680C4801F086FBE7
:102B20000B4801F083FB0B4800F03AFA00BF103766
:102B3000BD4680BD352A0000C4830000D08300005C
:102B400008840000148400007D2A00003084000006
:102B5000388400004084000080B400AF00BFFDE76F
:102B600080B582B000AF786039607B68012B16D1E8
:102B70003B684FF6FF72934211D10B4B1B6803F079
:102B80000103002B0BD1084B01221A6007490848AA
:102B9000FEF7B8FF074A0849054803F09DFC00BF4F
:102BA0000837BD4680BD00BF50070010D9070000A0
:102BB00028010010000000102108000080B500AFBF
:102BC0004FF6FF710120FFF7CBFF80BD80B487B0C7
:102BD00000AF00237B617A6913465B0013449B00BE
:102BE0001F4A13441F4A934233D21D497A69134640
:102BF0005B0013449B000B441B68FB6018497A6917
:102C000013465B0013449B000B445B68BB60144994
:102C10007A6913465B0013449B000B4408331B681E
:102C20007B6000233B613A697B689A420DD23B6925
:102C30009B00FA681A443B699B00B9680B44126810
:102C40001A603B6901333B61EDE77B6901337B61CE
:102C5000C1E700BF1C37BD465DF8047B704700BF6D
:102C6000E4000000FC00000080B485B000AF002349
:102C7000FB60FB68DB00154A1344154A93421ED2E1
:102C8000124AFB6852F833307B60104AFB68DB0065
:102C900013445B683B600023BB60BA683B689A42A0
:102CA00009D2BB689B007A68134400221A60BB6893
:102CB0000133BB60F1E7FB680133FB60D9E700BF7C
:102CC0001437BD465DF8047B704700BFFC00000070
:102CD0000C01000080B500AFFFF778FFFFF7C4FFDD
:102CE00004F0AAFE00BF80BD80B58CB002AF786052
:102CF0007B681B687B627B685B683B627B689B6868
:102D0000FB617B68DB68BB617B681B697B617B68FF
:102D10005B693B617B689B69FB607B68DB69BB60CF
:102D20000F4801F083FA796A3A6AF869BB6900933F
:102D300003460C4801F07AFA79693A69F868BB6889
:102D400000930346084801F071FAFB681946012018
:102D5000FFF7B6FEFFF700FF00BF2837BD4680BD76
:102D6000508B00007C8B0000B08B000080B400AF63
:102D70001EF0040F0CBFEFF30880EFF309808169A8
:102D8000004A1047E92C000000BFBD465DF8047BF7
:102D90007047FFFF80B584B000AF1A4BFB60FB6843
:102DA0003B603B6883F3098800BFFB687B607B68FE
:102DB00083F3088800BFFFF78DFF134B1B6803F0F8
:102DC0000103002B14BF01230023DBB2002B01D031
:102DD00001F04EFA02F0BEFDFEF7E4FBB860BB68FE
:102DE000002B04DBB968094801F020FA03E0B96858
:102DF000074801F01BFAFFF7AFFE00BF1037BD46D2
:102E000080BD00BF00000110F0ED00E0E88B000085
:102E10001C8C000080B582B000AF786039607B68A0
:102E2000012B16D13B684FF6FF72934211D10B4B29
:102E30001B6803F00103002B0BD1084B01221A6021
:102E400007490848FEF75EFE074A0849054803F0AF
:102E500043FB00BF0837BD4680BD00BF50070010D0
:102E6000D907000028010010000000102108000010
:102E700080B500AF4FF6FF710120FFF7CBFF80BD9B
:102E800080B584B000AF284B1B68002B03D0274BC4
:102E900001221A6043E0254B00221A6002F050FD27
:102EA0000346234A1360224B1A68224B1B689A423E
:102EB00009D9214B1B68596D1D4A10681D4A1268BB
:102EC000821A0A445A651A4B1B681A4A13601B4B34
:102ED0001B687B607B68B3FA83F3FB70FB78C3F1FC
:102EE0001F03FB60FA6813469B0013449B00144ABF
:102EF0001344BB60BB685B685A68BB685A60BB68B8
:102F00005A68BB6808339A4204D1BB685B685A6848
:102F1000BB685A60BB685B68DB68074A136000BF28
:102F20001037BD4680BD00BFD4070010D007001089
:102F3000DC070010D807001064070010CC07001051
:102F40006807001080B400AF01231846BD465DF845
:102F5000047B704780B483B000AF786039604FF075
:102F6000FF3318460C37BD465DF8047B7047FFFF02
:102F700080B584B000AFF860B9607A607B681946AC
:102F8000B86801F07CF9054B1B687A681146B8688F
:102F90009847034618461037BD4680BD0C00001008
:102FA00080B584B000AF7860786804F0BBFD03465C
:102FB000FB600023BB60FA6879680020FFF7D8FF48
:102FC0000246BB681344BB60012206490020FFF79C
:102FD000CFFF0246BB681344BB60BB68184610377E
:102FE000BD4680BD508C000080B483B000AF7860D7
:102FF00000BFFDE780B588B000AFB9607A603B6084
:103000000346FB73FE23FB617B68FA69B3FBF2F2B4
:10301000F96901FB02F29B1ABB61BA68BB691344F0
:10302000FA7B1A70FB7B002B06D1BB691A46B96884
:103030000120FFF79DFF12E0BB690133FA699A4254
:103040000DD1FB6901337B61BA687B6913440022AF
:103050001A707B691A46B9680120FFF789FF00BF23
:103060002037BD4680BD80B485B000AFB9607A60BE
:103070003B600346FB7300BF1437BD465DF8047B1D
:10308000704780B485B000AF78607B68FB60FB68F8
:103090001B78002B03D0FB680133FB60F7E7FA686D
:1030A0007B68D31A18461437BD465DF8047B704719
:1030B00080B483B000AF0346FB71FB792F2B04D99A
:1030C000FB79392B01D8012300E0002318460C3787
:1030D000BD465DF8047B704780B584B000AF786072
:1030E0000023FB607B681B681B781846FFF7E0FF36
:1030F0000346002B0FD0FA6813469B0013445B0075
:1031000018467B681B68591C7A6811601B78034459
:10311000303BFB60E6E7FB6818461037BD4680BDD4
:1031200090B589B000AFF860B9607A603B607B68A9
:103130007B61BB6C03F00203002B0ED17A6B3B6CFE
:103140009A420AD27B6B1F2B07D87B6B5A1C7A637F
:103150003A6B134430221A70EBE7BB6C03F00203A6
:10316000002B13D1BB6C03F00103002B0ED07A6B44
:103170007B6C9A420AD27B6B1F2B07D87B6B5A1C45
:103180007A633A6B134430221A70E6E7BB6C03F0A3
:103190001003002B58D0BB6C03F48063002B16D1B6
:1031A0007B6B002B13D07A6B3B6C9A4203D07A6B0B
:1031B0007B6C9A420BD17B6B013B7B637B6B002B5F
:1031C00005D0FB6B102B02D17B6B013B7B63FB6B50
:1031D000102B0FD1BB6C03F02003002B0AD17B6BAB
:1031E0001F2B07D87B6B5A1C7A633A6B13447822E7
:1031F0001A701FE0FB6B102B0FD1BB6C03F0200388
:10320000002B0AD07B6B1F2B07D87B6B5A1C7A6371
:103210003A6B134458221A700CE0FB6B022B09D155
:103220007B6B1F2B06D87B6B5A1C7A633A6B13445B
:1032300062221A707B6B1F2B06D87B6B5A1C7A6339
:103240003A6B134430221A707B6B002B14D07A6BCC
:103250007B6C9A4210D197F83830002B09D1BB6CA7
:1032600003F00403002B04D1BB6C03F00803002B14
:1032700002D07B6B013B7B637B6B1F2B24D897F8C1
:103280003830002B07D07B6B5A1C7A633A6B13449F
:103290002D221A7018E0BB6C03F00403002B07D03A
:1032A0007B6B5A1C7A633A6B13442B221A700BE027
:1032B000BB6C03F00803002B06D07B6B5A1C7A63AF
:1032C0003A6B134420221A70BB6C03F00203002BEC
:1032D00016D1BB6C03F00103002B11D17B6BFB619A
:1032E000FA697B6C9A420BD2FC687A68531C7B604B
:1032F0003B68B9682020A047FB690133FB61EFE719
:103300000023BB61BA697B6B9A4211D2FC687A6B6D
:10331000BB69D31A013B3A6B134418787A68531C83
:103320007B603B68B968A047BB690133BB61E9E7D3
:10333000BB6C03F00203002B0ED07A687B69D31AB2
:103340007A6C9A4208D9FC687A68531C7B603B68A7
:10335000B9682020A047F0E77B6818462437BD46AF
:1033600090BD80B596B008AFF860B9607A603B60F8
:1033700000237B633B6C002B03D17B6D23F0100398
:103380007B657B6D03F48063002B02D03B6C002BCC
:1033900034D03B6CBA6CB3FBF2F2B96C01FB02F2B5
:1033A0009B1A87F8333097F83330092B04D897F8F5
:1033B00033303033DAB20DE07B6D03F02003002BA5
:1033C00001D0412200E0612297F833301344DBB290
:1033D0000A3BDAB27B6B591C796307F138010B4465
:1033E00003F8282C3A6CBB6CB2FBF3F33B643B6CE8
:1033F000002B03D07B6B1F2B00D8CAE77B6D069395
:103400003B6D0593FB6C0493BB6C039397F84430BE
:1034100002937B6B019307F1100300933B687A687A
:10342000B968F868FFF77CFE034618463837BD4692
:1034300080BD80B596B008AFF860B9607A603B6037
:1034400000237B63D7E91023134303D13B6E23F0A2
:1034500010033B663B6E03F48063002B03D0D7E977
:103460001023134339D0D7E91001D7E9142303F00F
:10347000FFF9134687F8333097F83330092B04D817
:1034800097F833303033DAB20DE03B6E03F02003AF
:10349000002B01D0412200E0612297F83330134421
:1034A000DBB20A3BDAB27B6B591C796307F1380156
:1034B0000B4403F8282CD7E91423D7E9100103F0B3
:1034C000D7F902460B46C7E91023D7E91023134367
:1034D00003D07B6B1F2B00D8C5E73B6D3A6E06927D
:1034E000FA6D0592BA6D0492039397F848300293EF
:1034F0007B6B019307F1100300933B687A68B9680E
:10350000F868FFF70DFE034618463837BD4680BD04
:1035100090B59BB000AF78613961FA60BB6087ED10
:10352000000BFB687B64D7E9000102F0F3FF034660
:103530007B6600233B664FF000033B644FF09E43E5
:10354000FB63002387F85F30D7ED197AF5EEC07A78
:10355000F1EE10FA0AD5012387F85F309FEDAB7AC0
:10356000D7ED197A77EE677AC7ED197AD7F88030F8
:1035700003F48063002B01D10623BB673B6E1F2B36
:103580000FD8BB6F092B0CD93B6E5A1C3A6607F15A
:1035900068021344302203F8502CBB6F013BBB6719
:1035A000ECE7D7ED197AFDEEE77A17EE903ABB65B6
:1035B000BB6D07EE903AF8EEE77A97ED197A37EEA1
:1035C000677A934ABB6F9B001344D3ED007A67EE92
:1035D000277AC7ED0E7AD7ED0E7AFCEEE77A17EE72
:1035E000903A7B657B6D07EE903AF8EE677A97ED3F
:1035F0000E7A77EE677AC7ED107AD7ED107AB6EECD
:10360000007AF4EEC77AF1EE10FA18DD7B6D013323
:103610007B657B6D07EE903AB8EE677A7C4ABB6FAC
:103620009B001344D3ED007AB4EEE77AF1EE10FA82
:1036300019DB00237B65BB6D0133BB6513E0D7ED60
:10364000107AB6EE007AF4EE477AF1EE10FA0AD16B
:103650007B6D002B04D07B6D03F00103002B02D0A7
:103660007B6D01337B65D7ED197A9FED6A7AF4EEB5
:10367000C77AF1EE10FA01DD002366E1BB6F002B83
:1036800029D1BB6D07EE903AF8EEE77A97ED197AFB
:1036900077EE677AC7ED107AD7ED107AB6EE007A3A
:1036A000F4EEC77AF1EE10FA03DDBB6D0133BB65B2
:1036B00062E0D7ED107AB6EE007AF4EE477AF1EEDA
:1036C00010FA59D1BB6D03F00103002B54D0BB6D30
:1036D0000133BB6550E0BB6F3B653B6E1F2B28D8A9
:1036E0003B6D013B3B65796D4B4BA3FB0123DA0836
:1036F00013469B0013445B00CA1AD3B23033D9B2CD
:103700003B6E5A1C3A6607F1680213440A4603F8F6
:10371000502C7B6D404AA2FB0323DB087B657B6D4D
:10372000002B0CBF01230023DBB2002B00D1D4E718
:1037300000BF3B6E1F2B06D83B6D5A1E3A65002B0F
:1037400001D0012300E00023002B09D03B6E5A1C5E
:103750003A6607F168021344302203F8502CE8E778
:103760003B6E1F2B08D83B6E5A1C3A6607F1680265
:1037700013442E2203F8502C3B6E1F2B29D8BA6D10
:10378000264B83FB02139910D317C91A0B469B00D3
:103790000B445B00D11ACBB23033D9B23B6E5A1C0A
:1037A0003A6607F1680213440A4603F8502CBB6DD1
:1037B0001A4A82FB03129210DB17D31ABB65BB6D4A
:1037C000002B0CBF01230023DBB2002B00D1D3E779
:1037D00000BFD7F8803003F00203002B20D1D7F8C8
:1037E000803003F00103002B1AD03A6EFB6F9A422F
:1037F00016D23B6E1F2B13D83B6E5A1C3A6607F14C
:1038000068021344302203F8502CE2E70000000065
:10381000548C00000000004FCDCCCCCC67666666AF
:103820003A6EFB6F9A4212D197F85F30002B0BD1A2
:10383000D7F8803003F00403002B05D1D7F880308F
:1038400003F00803002B02D03B6E013B3B663B6E4E
:103850001F2B2CD897F85F30002B09D03B6E5A1CD9
:103860003A6607F1680213442D2203F8502C1EE03B
:10387000D7F8803003F00403002B09D03B6E5A1CAC
:103880003A6607F1680213442B2203F8502C0EE02D
:10389000D7F8803003F00803002B08D03B6E5A1C89
:1038A0003A6607F168021344202203F8502CD7F837
:1038B000803003F00203002B17D1D7F8803003F0DB
:1038C0000103002B11D13B6EFB64FA6CFB6F9A4233
:1038D0000BD27C69FA68531CFB60BB6839692020F5
:1038E000A047FB6C0133FB64EFE70023BB64BA6CB9
:1038F0003B6E9A4213D27C693A6EBB6CD31A013B81
:1039000007F16802134413F8500CFA68531CFB606B
:10391000BB683969A047BB6C0133BB64E7E7D7F8E4
:10392000803003F00203002B0ED0FA687B6CD31AB0
:10393000FA6F9A4208D97C69FA68531CFB60BB682D
:1039400039692020A047F0E7FB6818466C37BD4670
:1039500090BD00BFB0B5A0B00AAFF860B9607A60A2
:103960003B6000237B64BB68002B01D1A24BFB6052
:103970003B681B78002B00F046843B681B78252BA6
:103980000DD0FC683B6818787A6C531C7B647B68AC
:10399000B968A0473B6801333B6000F032BC3B682C
:1039A00001333B6000237B653B681B78203B102B79
:1039B00056D801A252F823F0393A0000613A0000CB
:1039C000613A00004D3A0000613A0000613A00009F
:1039D000613A0000613A0000613A0000613A00007B
:1039E000613A0000253A0000613A0000113A0000F7
:1039F000613A0000613A0000FD3900007B6D43F040
:103A000001037B653B6801333B600123BB642AE013
:103A10007B6D43F002037B653B6801333B60012310
:103A2000BB6420E07B6D43F004037B653B6801339E
:103A30003B600123BB6416E07B6D43F008037B65AC
:103A40003B6801333B600123BB640CE07B6D43F0BA
:103A500010037B653B6801333B600123BB6402E0DC
:103A60000023BB6400BFBB6C002B00D09CE700238D
:103A70003B653B681B781846FFF71AFB0346002B93
:103A800005D03B461846FFF727FB386518E03B6832
:103A90001B782A2B14D1BB6E1A1DBA661B683B63B8
:103AA0003B6B002B07DA7B6D43F002037B653B6BBE
:103AB0005B423B6501E03B6B3B653B6801333B6030
:103AC0000023FB643B681B782E2B24D17B6D43F4D1
:103AD00080637B653B6801333B603B681B7818461D
:103AE000FFF7E6FA0346002B05D03B461846FFF7E2
:103AF000F3FAF8640FE03B681B782A2B0BD1BB6EFE
:103B00001A1DBA661B68FB62FB6A23EAE373FB6457
:103B10003B6801333B603B681B78683B122B67D8DE
:103B200001A252F823F000BF9B3B0000F13B0000D4
:103B3000D13B0000F13B0000753B0000F13B000071
:103B4000F13B0000F13B0000F13B0000F13B0000C5
:103B5000F13B0000F13B0000C13B0000F13B0000E5
:103B6000F13B0000F13B0000F13B0000F13B0000A5
:103B7000E13B00007B6D43F480737B653B68013360
:103B80003B603B681B786C2B34D17B6D43F4007336
:103B90007B653B6801333B602CE07B6D43F0800329
:103BA0007B653B6801333B603B681B78682B25D104
:103BB0007B6D43F040037B653B6801333B601DE058
:103BC0007B6D43F480737B653B6801333B6016E09B
:103BD0007B6D43F400737B653B6801333B600EE013
:103BE0007B6D43F480737B653B6801333B6006E08B
:103BF00000BF04E000BF02E06730000000BF3B6888
:103C00001B78253B532B00F2EF8201A252F823F0E0
:103C1000D1410000E9410000E9410000E941000014
:103C2000E9410000E9410000E9410000E9410000EC
:103C3000E9410000E9410000E9410000E9410000DC
:103C4000E9410000E9410000E9410000E9410000CC
:103C5000E9410000E9410000E9410000E9410000BC
:103C6000E9410000E9410000E9410000E9410000AC
:103C7000E9410000E9410000E9410000E94100009C
:103C8000E9410000E9410000E9410000E94100008C
:103C9000E9410000EF3F0000E9410000E941000078
:103CA000E9410000E9410000E9410000E94100006C
:103CB000E9410000E9410000E9410000E94100005C
:103CC000E9410000E9410000E9410000E94100004C
:103CD000E9410000E9410000E9410000613D0000C8
:103CE000E9410000E9410000E9410000E94100002C
:103CF000E9410000E9410000E9410000E94100001C
:103D0000E9410000613D00002B400000613D0000E2
:103D1000E9410000EF3F0000E9410000E9410000F7
:103D2000613D0000E9410000E9410000E941000077
:103D3000E9410000E9410000613D000089410000C7
:103D4000E9410000E9410000B3400000E941000002
:103D5000613D0000E9410000E9410000613D0000D3
:103D60003B681B78782B03D03B681B78582B02D11B
:103D700010233B6413E03B681B786F2B02D10823B0
:103D80003B640CE03B681B78622B02D102233B644E
:103D900005E00A233B647B6D23F010037B653B68E1
:103DA0001B78582B03D17B6D43F020037B653B6868
:103DB0001B78692B07D03B681B78642B03D07B6D85
:103DC00023F00C037B657B6D03F48063002B03D031
:103DD0007B6D23F001037B653B681B78692B04D066
:103DE0003B681B78642B40F08E807B6D03F400737E
:103DF000002B2FD0BB6E073323F0070303F108021B
:103E0000BA66D3E90023C7E90423D7E90423002ACB
:103E100073F1000102DA524263EB43031046194684
:103E20007B69DB0FDCB23B6C1A464FF000037D6D03
:103E300008953D6D0795FD6C0695CDE90423029428
:103E4000CDE900017B687A6CB968F868FFF7F1FA90
:103E50007864C8E07B6D03F48073002B1ED0BB6ECA
:103E60001A1DBA661B68FB61FB69002BB8BF5B4279
:103E70001946FB69DB0FDBB27A6D05923A6D04924D
:103E8000FA6C03923A6C0292019300917B687A6C0F
:103E9000B968F868FFF765FA7864A4E07B6D03F011
:103EA0004003002B05D0BB6E1A1DBA661B68DBB23F
:103EB0000EE07B6D03F08003002B05D0BB6E1A1D56
:103EC000BA661B681BB203E0BB6E1A1DBA661B689C
:103ED0003B623B6A002BB8BF5B4219463B6ADB0F73
:103EE000DBB27A6D05923A6D0492FA6C03923A6CE9
:103EF0000292019300917B687A6CB968F868FFF7C9
:103F000030FA78646FE07B6D03F40073002B20D0EF
:103F1000BB6E073323F0070303F10802BA66D3E947
:103F20000023396C08464FF000017C6D08943C6D0D
:103F30000794FC6C0694CDE9040100210291CDE9BF
:103F400000237B687A6CB968F868FFF772FA7864C6
:103F500049E07B6D03F48073002B16D0BB6E1A1DF5
:103F6000BA661B687A6D05923A6D0492FA6C0392F8
:103F70003A6C02920022019200937B687A6CB968D5
:103F8000F868FFF7EEF978642DE07B6D03F04003ED
:103F9000002B05D0BB6E1A1DBA661B68DBB20EE0A3
:103FA0007B6D03F08003002B05D0BB6E1A1DBA6633
:103FB0001B689BB203E0BB6E1A1DBA661B687B626E
:103FC0007B6D05933B6D0493FB6C03933B6C0293F9
:103FD000002301937B6A00937B687A6CB968F86868
:103FE000FFF7BFF978643B6801333B6009E1BB6EC2
:103FF000073323F0070303F10802BA6693ED007B51
:104000007B6D02933B6D0193FB6C0093B0EE470A0E
:10401000F0EE670A7B687A6CB968F868FFF778FA9F
:1040200078643B6801333B60EBE00123FB637B6D0D
:1040300003F00203002B13D1FB6B5A1CFA633A6D99
:104040009A428CBF01230023DBB2002B08D0FC680E
:104050007A6C531C7B647B68B9682020A047EBE72F
:10406000FC68BB6E1A1DBA661B68D8B27A6C531C0A
:104070007B647B68B968A0477B6D03F00203002B6B
:1040800013D0FB6B5A1CFA633A6D9A428CBF012322
:104090000023DBB2002B08D0FC687A6C531C7B64D5
:1040A0007B68B9682020A047EBE73B6801333B60A1
:1040B000A7E0BB6E1A1DBA661B68BB63B86BFEF740
:1040C000E0FF78637B6D03F48063002B07D07A6B8D
:1040D000FB6C9A4201D27B6B00E0FB6C7B637B6DD7
:1040E00003F00203002B13D17B6B5A1C7A633A6DE9
:1040F0009A428CBF01230023DBB2002B08D0FC685E
:104100007A6C531C7B647B68B9682020A047EBE77E
:10411000BB6B1B78002B0BD07B6D03F48063002BF3
:1041200004D0FB6C5A1EFA64002B01D0012300E07E
:104130000023002B0BD0FC68BB6B5A1CBA631878A9
:104140007A6C531C7B647B68B968A047E0E77B6DA1
:1041500003F00203002B13D07B6B5A1C7A633A6D79
:104160009A428CBF01230023DBB2002B08D0FC68ED
:104170007A6C531C7B647B68B9682020A047EBE70E
:104180003B6801333B603CE008233B657B6D43F0BB
:1041900021037B65002387F82B30BB6E1A1DBA669E
:1041A0001B681A467B6D05933B6D0493FB6C039370
:1041B000102302930023019300927B687A6CB96804
:1041C000F868FFF7CEF878643B6801333B6018E08D
:1041D000FC687A6C531C7B647B68B9682520A04717
:1041E0003B6801333B600CE0FC683B6818787A6CF4
:1041F000531C7B647B68B968A0473B6801333B6014
:1042000000BFFFF7B5BBFC687A6C7B689A4202D3AB
:104210007B685A1E00E07A6C7B68B9680020A04772
:104220007B6C18465837BD46B0BD00BF0FB480B593
:10423000C4B002AF07F58A73C7F800313946D7F822
:1042400000310093D7F810314FF0FF320748FFF7E5
:1042500081FBC7F80401D7F80431184607F58477C5
:10426000BD46BDE8804004B0704700BFF52F000098
:1042700080B400AF00BFBD465DF8047B704780B5D9
:1042800082B000AF786039603968786800F006F86D
:10429000034600BF18460837BD4680BDB0B58CB098
:1042A00000AF786039602C4B1B6803F00103002BD2
:1042B0000CBF01230023DBB2002B01D03B6847E099
:1042C000264B1B68002B1DD1254BBB600423FB60D4
:1042D00003233B610123BB6207F108037B62BC6AD5
:1042E0007D6A20462946ABBE04463C623B6AFB62BF
:1042F000FB6AB3F1FF3F02D14FF0FF3328E0174ACA
:10430000FB6A1360154B1B68BB607B68FB603B68F6
:104310003B610523FB6107F10803BB61FC69BD69D3
:1043200020462946ABBE04467C617B69FB62FB6A82
:10433000B3F1FF3F02D14FF0FF3309E03B68FA6A67
:104340009A4202D14FF0FF3302E03A68FB6AD31A77
:1043500018463037BD46B0BDF0ED00E0E007001074
:104360007C8C000080B483B000AF78600C4B1B687D
:10437000DA680B4B1B6842F08072DA60094B1B68ED
:1043800000225A60074B1B681A68064B1B6842F0F4
:1043900001021A6000BF0C37BD465DF8047B704710
:1043A000180000101400001080B483B000AF7860D3
:1043B000044B1B685B6818460C37BD465DF8047BF0
:1043C000704700BF1400001080B400AFDFF81C007D
:1043D000016841F470010160BFF34F8FBFF36F8F2D
:1043E00000BFBD465DF8047B7047000088ED00E02B
:1043F00080B483B000AF7860044A7B68136000BF6C
:104400000C37BD465DF8047B704700BF14010010F7
:1044100080B584B000AFC7E90001D7E9000102F020
:1044200091F9024607F10C0300EE102A184600F03D
:104430005CF8FB6818461037BD4680BD80B584B077
:1044400000AFC7E90001D7E9000102F07BF902469D
:1044500007F10C0300EE102A184600F005F8FB687F
:1044600018461037BD4680BD80B582B000AF786079
:1044700087ED000A7B683A461146184600F005F8B9
:104480007B6818460837BD4680BD80B483B000AF56
:10449000786039603B681A687B681A607B681846E8
:1044A0000C37BD465DF8047B704780B586B000AF21
:1044B0007860786800F007F8F0EE407AB0EE670AAE
:1044C0001837BD4680BD80B485B000AFF860397242
:1044D0003A713B70FB681B6807EE903AB0EE670AD2
:1044E0001437BD465DF8047B704780B582B000AFDD
:1044F000786087ED000A7B683A4611461846FFF758
:10450000C4FF7B6818460837BD4680BD80B586B0BD
:1045100000AF7860786800F007F8F0EE407AB0EE0F
:10452000670A1837BD4680BD80B485B000AFF8601B
:1045300039723A713B70FB681B6807EE903AB0EE37
:10454000670A1437BD465DF8047B704780B52DEDD2
:10455000028B82B000AF786039607B6893ED008A8F
:104560003B681846FFF7D2FFF0EE407AB4EEE78AD8
:10457000F1EE10FA94BF01230023DBB2184608378E
:10458000BD46BDEC028B80BD80B582B000AF7860C7
:104590007968034801F050FA00BF0837BD4680BD76
:1045A0002801001080B483B000AF7860044A7B68B3
:1045B000136000BF0C37BD465DF8047B704700BF39
:1045C000E407001080B400AF034B1B681846BD46DB
:1045D0005DF8047B704700BFE407001080B586B02B
:1045E00000AF786039607B681B6808331B683968E6
:1045F0007868984778614FF00003FB607B69002B77
:104600000FD07B681B680C331B687868984703469B
:104610003B6107F110037969184601F028FA034657
:10462000FB60FB6818461837BD4680BD80B584B076
:1046300000AF07F10803184601F045FA07F1080238
:104640003B4611461846FDF73BFC3B4619460848D9
:10465000FCF7ABF80748FEF728F80346002B02D01A
:104660000448FDF76FFB00BF1037BD4680BD00BF9B
:10467000F8070010E807001080B584B000AFF860BC
:10468000B9607A60FB68BA687968184600F005F886
:1046900000BFF8681037BD4680BDB0B588B000AF28
:1046A000F860B9607A60BB68D3E90023C7E90623E4
:1046B00007F118031846FBF7FDFF7B681B681A46D5
:1046C0004FF0000302FB01F500FB03F42C44A0FBB8
:1046D0000223E1180B46C7E9042307F1100319462A
:1046E000F868FCF71DF8F8682037BD46B0BD80B506
:1046F00088B000AFF860B9607A60BB68D3E9002386
:10470000C7E9062307F118031846FBF7D3FF7B68B8
:104710001B681A464FF0000302F05AF802460B4697
:10472000C7E9042307F110031946F868FBF7F8FFFF
:10473000F8682037BD4680BD80B58CB000AF78608A
:104740001648FFF731FEF862154BD3E90023C7E99D
:104750000823144B1A68FB6AB3FBF2F102FB01F267
:104760009B1AFB6107F1100307F11C010E4A184662
:10477000FFF782FF07F1080307F110010B4A184603
:10478000FFF7B5FF7B6807F1080207F12001184623
:10479000FDF736FA78683037BD4680BD0008001056
:1047A000F80700102800001020000010C893000037
:1047B00090B58BB000AFF8601C48FFF7D3FDFFF752
:1047C00001FF03461A680C321268184690470346E8
:1047D0007B6107F11403184601F082F903463B613F
:1047E0003B69134AA2FB03239B09124A136007F19A
:1047F0002003184601F080F907F1180307F12002A1
:104800000D491846FFF738FF0C4C3B4607F11002E4
:1048100007F118011846FFF76AFFD7E90023C4E93A
:10482000002300BF2C37BD4690BD00BF000800101C
:10483000D34D621028000010C89300002000001023
:1048400080B582B000AF7860396039680348FDF701
:10485000F5FA00BF0837BD4680BD00BFE80700106D
:10486000B0B58AB000AF786004237B621D4B1B6833
:104870005B68002B14BF01230023DBB2002B2CD07C
:10488000FBF7D4FD0446236804331D684FF0FF3363
:10489000BB6007F10803043313491846FDF7A4FA77
:1048A0007B681B79FB6107F1080319462046A8477E
:1048B00007F108031846FCF715FB07233B62094B79
:1048C0001B6800229A60074B1B681968054B1B6820
:1048D0003A6A0A431A6000237B627B6A18462837CB
:1048E000BD46B0BD1C0000102D46000080B582B052
:1048F00000AF7860786801F00CF903461846083775
:10490000BD4680BD80B483B000AF78607B681B6813
:1049100007EE903AB0EE670A0C37BD465DF8047BAF
:10492000704780B584B000AF786039607B68184606
:10493000FFF7E8FFB0EE407A3B6807EE903AF8EEFA
:10494000E77A77EE677A07F10C03B0EE670A18464C
:1049500000F031F8FB6818461037BD4680BD80B5C1
:104960002DED028B84B000AF786039607B6818460B
:10497000FFF7C8FFB0EE408A3B681846FFF7C2FF5A
:10498000F0EE407AC7ED037A07F10C031846FFF703
:10499000BDFDB0EE407AC8EE077A07F10803B0EE2D
:1049A000670A184600F007F8BB6818461037BD467E
:1049B000BDEC028B80BD80B582B000AF786087ED22
:1049C000000A7B683A4611461846FFF75EFD7B6891
:1049D00018460837BD4680BD80B582B000AF78600C
:1049E000786800F005F8034618460837BD4680BDD4
:1049F00080B582B000AF78607B681846FFF782FF11
:104A0000F0EE407AFCEEE77A17EE903A1846083757
:104A1000BD4680BD90B589B000AF786039604FF079
:104A200001004FF00001FFF7F3FC0346FB6007F1C4
:104A30000C023B4611461846FFF788FD0346002B43
:104A400002D04FF0FF3340E0FFF7BCFD03461A6889
:104A50000C321268184690470346BB603A4607F18D
:104A6000080311461846FFF77AFF03467B6107F1FA
:104A7000140301211846FFF754FF03463B6107F179
:104A800010031846FFF732FFF86107F108031846D4
:104A9000FFF7A2FF04463B461846FFF79DFF03467B
:104AA000B4FBF3F203FB02F3E31ABB61FB69B3F15E
:104AB000807F05D36FF07F43FB616FF07F43BB6165
:104AC000044B1B68FA695A60BB6918462437BD4617
:104AD00090BD00BF1C00001080B586B000AF7860AC
:104AE000786800F007F8F0EE407AB0EE670A183701
:104AF000BD4680BD80B485B000AFF86039723A71B0
:104B00003B70FB68D3ED007A9FED057A67EE877AFC
:104B1000B0EE670A1437BD465DF8047B704700BFEE
:104B20000024744980B584B000AF786039600021FA
:104B3000786800F0E3F84FF00C004FF00001FFF749
:104B40007DFC0346BB6007F108023B461146184650
:104B500000F082F90346002B0FD0164B3A68196813
:104B6000786800F095FA0121786800F0EBF83B4690
:104B70001946114800F0E8FF07E00021786800F0CE
:104B8000E1F80E490C4800F0DFFF0121786800F0E1
:104B9000E3FAFF233B7307F10C03012219467868FF
:104BA00000F00EF80021786800F014FB00BF103709
:104BB000BD4680BDCC9300002C000010D0930000B7
:104BC00080B584B000AFF860B9601346FB71FB7923
:104BD000042B0ED9B2230B4A0B490C48FFF726FBD6
:104BE0000B48FEF7DDF900210120FDF769FFFDF715
:104BF000B3FF084B1B68FA79C3F8A82100BF103730
:104C0000BD4680BD708D0000EC930000F48D000067
:104C1000948E00000408001080B483B000AF786068
:104C20003960054B1B68D3F8A83118460C37BD46D0
:104C30005DF8047B704700BF0408001080B483B0A7
:104C400000AF7860034B1B6818460C37BD465DF813
:104C5000047B70472C00001080B485B000AF7860F2
:104C600039600B4B1B68D3F8C4303A681278114690
:104C700001228A401340002B14BF01230023FB7341
:104C8000FB7B18461437BD465DF8047B704700BFB8
:104C90000408001090B583B000AF78603960094B0C
:104CA0001B68D3F8C4203B681B781946054B1C6869
:104CB0001046FDF770F80346C4F8C43000BF0C3747
:104CC000BD4690BD0408001090B583B000AF786079
:104CD0003960094B1B68D3F8C4203B681B78194620
:104CE000054B1C681046FDF743F80346C4F8C43072
:104CF00000BF0C37BD4690BD0408001090B583B0CE
:104D000000AF78600B467B800C4B1B68D3F80C011E
:104D100079880A4B1C680A4B1A785B781B021A4385
:104D2000002362F30F031A4600F021FF0346C4F884
:104D30000C3100BF0C37BD4690BD00BF0408001009
:104D4000D493000090B583B000AF78600B467B80B1
:104D50000C4B1B68D3F8040179880A4B1C680A4B7A
:104D60001A785B781B021A43002362F30F031A467A
:104D700000F0FDFE0346C4F8043100BF0C37BD4609
:104D800090BD00BF04080010E093000090B583B010
:104D900000AF78600B467B800C4B1B68D3F8080192
:104DA00079880A4B1C680A4B1A785B781B021A43F5
:104DB000002362F30F031A4600F0D9FE0346C4F83D
:104DC000083100BF0C37BD4690BD00BF040800107D
:104DD000E493000090B583B000AF78600B467B8011
:104DE0000C4B1B68D3F8B40179880A4B1C680A4B3A
:104DF0001A785B781B021A43002362F30F031A46EA
:104E000000F0B5FE0346C4F8B43100BF0C37BD4610
:104E100090BD00BF04080010E893000080B52DEDA0
:104E2000028B82B000AF786039607B6893ED008AB6
:104E30003B681846FFF739FBF0EE407AB4EEE78A9C
:104E4000F1EE10FA4CBF01230023DBB218460837FD
:104E5000BD46BDEC028B80BD80B52DED028B82B0CE
:104E600000AF786039607B6893ED008A3B68184634
:104E7000FFF71BFBF0EE407AB4EEE78AF1EE10FA92
:104E8000CCBF01230023DBB218460837BD46BDEC7A
:104E9000028B80BD80B582B000AF7860786800F08A
:104EA00005F8034618460837BD4680BD80B582B078
:104EB00000AF78607B681846FFF724FDF0EE407A7B
:104EC000FCEEE77A17EE903A18460837BD4680BDEB
:104ED00080B582B000AF78607B681846FFF712FD9E
:104EE000F0EE407AFCEEE77A17EE903A9BB2184665
:104EF0000837BD4680BDFFFF90B58DB000AFF860AC
:104F0000B9607A604FF4C0704FF00001FFF796FA75
:104F100003463B6107F110023B1D11461846FFF79F
:104F20007DFF034683F00103DBB2002B14D14FF069
:104F30000C004FF00001FFF781FA03467B6107F197
:104F400014023B1D11461846FFF786FF034683F007
:104F50000103DBB2002B01D0012300E00023002B72
:104F60000ED0F423444A45494548FFF75FF94548C8
:104F7000FEF716F800210120FDF7A2FDFDF7ECFD7C
:104F8000012387F82F303B1D1846FFF783FF0446A7
:104F900007F108031846FFF77DFF0346B4FBF3F261
:104FA00003FB02F3E31A002B14BF01230023DBB23F
:104FB000002B17D007F108023B1D1146184600F0E0
:104FC000E8FD0346FB6107F11C030121184600F0D0
:104FD0000CFE0346BB6107F11803184600F099FD6B
:104FE000B8620EE007F108023B1D1146184600F0BA
:104FF000D0FD03463B6207F12003184600F089FD0F
:10500000B8620123FB8497F82F30002B2FD007F1D3
:1050100008031846FFF75CFF03461A46BB6A9BB2BB
:1050200012FB03F39BB2FA8C12FB03F39BB25B00FF
:10503000BB84BB8C9B2B03D9002387F82F30E2E77E
:10504000FB8C5B00FB84FB8C072BDCD940F211133B
:10505000094A0D490D48FFF7E9F80A48FDF7A0FF96
:1050600000210120FDF72CFDFDF776FDCBE7BB6AA3
:1050700018463437BD4690BDAC8E00000494000045
:10508000288F0000948E00001C94000018900000EF
:1050900080B586B000AFF860B9607A600123FB820A
:1050A0007A68B968F868FFF727FF38610021F86867
:1050B000FFF724FE0021F868FFF744FE0021F8689E
:1050C000FFF764FE0021F868FFF784FE214B1B68A0
:1050D000D3F8843023F01F013B695A1E1D4B1B6817
:1050E0000A43C3F884201B4B1B68D3F8843023F099
:1050F0006002FB8A5B011946164B1B680A43C3F822
:105100008420144B1B68D3F88020124B1B6842F09C
:105110000102C3F880200F4B1B68AA22C3F88C2021
:105120000C4B1B685522C3F88C200A4B1B68D3F824
:1051300088300A211846FCF740FE034683F001033D
:10514000DBB2002B01D000BFEFE700BF1837BD4630
:1051500080BD00BF0408001090B583B000AF786038
:105160000B46FB70FB781F2B0FD94FF4A973134A22
:1051700013491448FFF75AF81348FDF711FF0021AF
:105180000120FDF79DFCFDF7E7FC104B1B68D3F8F1
:1051900004010E4B1C680E4BF9781A785B781B02E1
:1051A0001A43002362F30F031A46FCF771FC03460F
:1051B000C4F8043100BF0C37BD4690BDC09000005C
:1051C0003494000008910000948E00000408001040
:1051D000DC93000090B583B000AF78600B46FB70A5
:1051E0000C4B1B68D3F80001F9780A4B1C680A4B7A
:1051F0001A785B781B021A43002362F30F031A46E6
:1052000000F0B5FC0346C4F8003100BF0C37BD46C2
:1052100090BD00BF04080010D893000080B582B094
:1052200000AF78607B681B6808331B6802217868D0
:10523000984700BF0837BD4680BD80B582B000AF3B
:105240007860786800F020F800BF0837BD4680BD60
:1052500080B584B000AF78607B681B680C331B6836
:1052600007F10F010122786898470346002B0CBF15
:1052700001230023DBB2002B01D0FF23FB73FB7B58
:1052800018461037BD4680BD80B582B000AF78604B
:105290007B681B6810331B68786898470346002BAF
:1052A00003D07868FFF7D4FFF2E700BF0837BD46A8
:1052B00080BDFFFF80B489B000AF786087ED000A41
:1052C0007B6800221A607B6800225A607B6801229A
:1052D0009A600023FB770023BB61BB690E2B4FDC78
:1052E000FB7F002B4CD1BB6901337B617B690E2BAB
:1052F00042DCFB7F002B3FD1BB6907EE903AF8EE12
:10530000E77AC7ED047A7B6907EE903AF8EEE77A20
:10531000C7ED037AD7ED046A97ED037AC6EE877A74
:10532000B7EE007A77EE877AC7ED027AD7ED027A88
:105330009FED177A77EE877A97ED007AB4EEE77AE9
:10534000F1EE10FA14D8D7ED027A9FED117A77EECC
:10535000C77A97ED007AB4EEE77AF1EE10FA07DB40
:10536000BA697B685A607A697B689A600123FB7727
:105370007B6901337B61B9E7BB690133BB61ACE792
:1053800000BF78682437BD465DF8047B704700BFD6
:105390000AD7233C80B487B000AF87ED030AC7ED7E
:1053A000020A78607B6807EE903AF8EE677AC7EDFC
:1053B000057AD7ED037AB3EE007A27EE877AD7ED38
:1053C000027A67EE277A97ED057AC7EE276AF0EE44
:1053D000667AB0EE670A1C37BD465DF8047B7047FD
:1053E00080B487B000AF87ED030AC7ED020A78608A
:1053F0007B6807EE903AF8EE677AC7ED057AD7ED4D
:10540000037AB3EE007A27EE877AD7ED027A67EE59
:10541000277A97ED057AC7EE276AF0EE667AB0EE46
:10542000670A1C37BD465DF8047B704780B483B0C3
:1054300000AF87ED010AD7ED017AB6EE007A77EE7C
:10544000877AFDEEE77AF8EEE77AB0EE670A0C3776
:10545000BD465DF8047B704780B586B000AF87ED30
:10546000010A0023FB7597ED010AFFF7DFFF87EDC7
:10547000040A97ED017AD7ED047A77EE677AC7EDE3
:10548000037AD7ED037A9FED0B7AF4EEC77AF1EE4B
:1054900010FA0ADBD7ED037A9FED077AF4EEC77AAC
:1054A000F1EE10FA01D80123FB75FB7D1846183781
:1054B000BD4680BD0AD723BC0AD7233C90B591B026
:1054C00000AFF861B9617A6107F114031846FFF77C
:1054D00083FAB8620023FB63FB6900221A60FB6950
:1054E00000225A60FB6901229A60BB6907EE903A7C
:1054F000F8EE677AC7ED097A4FF00003BB634FF00F
:105500007F537B634FF07E533B634FF08043FB62DE
:10551000FB6B042B00F0BE80FB6B032B00F2B8800A
:1055200001A252F823F000BF395500009355000046
:10553000F355000063560000B86AF7EE000A97EDD5
:10554000090AFFF727FF87ED0E0AD7ED0E7AB7EEAF
:10555000007AF4EEC77AF1EE10FA05D5FB69002265
:105560001A600423FB6394E097ED0E0AFFF774FFC3
:105570000346002B0AD0D7ED0E7AFCEEE77A17EE41
:10558000902AFB691A600423FB6382E00123FB631A
:105590007FE0B86AD7ED0D0A97ED090AFFF7FAFE2A
:1055A000F0EE407AB0EE670AFFF740FF87ED0E0A93
:1055B000B86AD7ED0E0A97ED090AFFF711FF87EDDC
:1055C0000D0AD7ED0D7A9FED367AF4EEC77AF1EE3B
:1055D00010FA0BDBD7ED0D7A9FED327AF4EEC77A35
:1055E000F1EE10FA02D80323FB6352E00223FB63BF
:1055F0004FE0D7ED0B7AB7EE007A77EE877AC7EDFA
:105600000B7AD7ED0C7AB2EE0E7AF4EEC77AF1EEA1
:1056100010FA02DD0423FB633BE0D7ED0B7AB2EE18
:105620000E7AF4EEC77AF1EE10FA0FDDD7ED0C7AB0
:10563000B7EE007A77EE877AC7ED0C7AD7ED0C7A61
:10564000B7EE007A77EE877AC7ED0B7AD7ED0C6A62
:1056500097ED0B7AC6EE877AC7ED0D7A0123FB63CF
:1056600017E0FC693B4697ED0D0A1846FFF722FE4E
:105670003B4693E8070084E80700D7ED0E7AFCEE7E
:10568000E77A17EE902AFB691A600423FB6300E0B7
:1056900000BF3DE700BFF8694437BD4690BD00BF7D
:1056A000CDCC8C3F3333F33F80B584B000AF78600E
:1056B00039600723FB73FEF785FF03461A6814322F
:1056C00012687968496804311846904739687868E3
:1056D00000F03FF87B685B68DB681B6804331B687D
:1056E0007A685268D0687A685268127CC2F3C20243
:1056F000D2B2114698477B685B689B681B6804338D
:105700001B687A68526890687A685268127CC2F3A3
:105710000202D2B2114698477B685B68DB68184684
:10572000FFF77CFD7B685B689B681846FFF776FD9A
:105730007B685B681B681B7ADAB27B685B681B68F6
:1057400042F00702D2B21A72002318461037BD4643
:1057500080BD80B588B000AF78603960FEF732FF59
:1057600002467B685B68043319461046FEF736FF35
:105770000346BB6107F10C03BA6939681846FFF7A5
:105780009DFE8023FB77FB681B0ABB77FB687B775A
:105790007B69DBB21B01DAB23B69DBB203F00F03BA
:1057A000DBB213433B777B685B681B6880221A730C
:1057B0007B685B681B68BA7F1A717B685B681B68D3
:1057C0007A7F1A707B685B681B683A7F83F82820B1
:1057D0007B685B681B6803221A7301231846203715
:1057E000BD4680BD80B586B000AFF860B9607A6014
:1057F000BB683B6100237B617A697B689A4216D261
:105800003A697B691A44FB685B681B6812781A70F6
:10581000F86800F043F8034683F00103DBB2002B85
:1058200001D000BFF4E77B6901337B61E4E700BF8F
:105830001837BD4680BD80B586B000AFF860B9604E
:105840007A60BB683B6100237B61F86800F038F840
:105850000346002B11D07A697B689A420CD2FB6810
:105860005B681B681B78D9B27B695A1C7A613A69FC
:1058700013440A461A70E8E700BF7B6918461837D8
:10588000BD4680BD80B582B000AF7860786800F01A
:1058900017F8034618460837BD4680BD80B582B06C
:1058A00000AF78607B685B681B681B7DDBB20521FD
:1058B000184600F0B8F9034618460837BD4680BDC3
:1058C00080B582B000AF78607B685B681B681B7D29
:1058D000DBB20021184600F0A6F903461846083747
:1058E000BD4680BD80B582B000AF786039603A684F
:1058F00079680448FFF776FF3B6818460837BD46CD
:1059000080BD00BF7000001080B582B000AF78602D
:1059100039600A48FFF7B6FF034683F00103DBB2A4
:10592000002B01D000BFF4E73A6879680348FFF71D
:1059300082FF3B6818460837BD4680BD70000010E6
:1059400080B500AF0248FEF72FFD0346184680BD24
:105950000808001080B586B000AFFEF735FD284876
:10596000FEF746FD2748FEF71DFE274B1968254820
:10597000FFF7D8F8FF233B703B4601221946214828
:10598000FFF71EF94FF416412048FFF78DFE20481F
:1059900000F082FD1F4800F08FFD1F48FEF708FF52
:1059A0001E4B19681C48FFF735F81B48FEF758FFD7
:1059B00078617B69002B0ED0BA23194A19491A481D
:1059C000FEF734FC1948FDF7EBFA00210120FDF742
:1059D00077F8FDF7C1F81648FEF7C4FC3B1D1549E2
:1059E0001846FCF78FF83B1D1846FEF7CDFD3B1D12
:1059F0001846FAF715FF00BF1837BD4680BD00BF37
:105A00008C0000106C000010808C000070000010F2
:105A1000E55800000959000078000010848C00004F
:105A2000A4910000A0940000C4910000948E000096
:105A3000080800103947000080B586B000AF7860D4
:105A4000396007F108033968184600F043F907F197
:105A500008037968184600F05FF907F10803184653
:105A6000FAF7DEFE7B6818461837BD4680BD80B564
:105A700084B000AF786039607B681846FEF742FF5B
:105A8000F0EE406A3B6807EE903AF8EE677A86EEF1
:105A9000A77A07F10C03B0EE470A1846FEF725FD7A
:105AA000FB6818461037BD4680BD80B582B000AF98
:105AB000786039607B681846FAF786FC7B68184680
:105AC0000837BD4680BD80B582B000AF78607B6886
:105AD000184600F042F900BF78680837BD4680BD1F
